:0400000080311D2806
:100008007E14803120007F08F8002700961F1128F1
:1000180096138231DA22803118282000111C182802
:1000280011102E148531882578082000FF007E10D5
:10003800090080311F288631AF268031FC00F90184
:10004800FA01FB0120308400003085002F30863112
:100058008E267E10200085313F2D20004418080090
:100068008631AC2680318631A926803182315422EE
:100078008031200025082306031D44282408220671
:10008800031D6E28E8010230680203186E2868080C
:100098004D3E860087010108DD00DE015D08CF00C6
:1000A8005E08D0000A30D1000030D2008531A52585
:1000B8008031200068352A3E860087014F08C03FFE
:1000C8005008C13F0130DD005D08E80702306802D2
:1000D800031C4B2825082302031D74282408220228
:1000E8000318862823082102031D7C2822082002E1
:1000F800031C862825082102031D842824082002C1
:10010800031C9E2823082502031D8C28220824028C
:100118000318B12823082102031D9428220820026D
:1001280003189E2825082102031D9C282408200264
:100138000318B1282209DD002309DE00DD0A0319AE
:10014800DE0A20085D07E40021085E3DE5004D3029
:10015800DD005D08E6004930C9282409DD002509CD
:10016800DE00DD0A0319DE0A20085D07E400210825
:100178005E3DE500E51FC428C030E407A830E53D32
:100188004930DD005D08E6004D30DD005D08E70020
:10019800E801023068020318C92968086707DD000A
:1001A8005D088600870168086607DE005E0884002F
:1001B800850100080102031C4E2968086607DD0056
:1001C8005D08860087010108DE00DF01DE09DF091E
:1001D800DE0A0319DF0A68086707E000600886007E
:1001E800870101085E07CF005F0803185F0AD00087
:1001F8000A30D1000030D2008531A5258031200099
:1002080050086502031D0A294F08640203183029A3
:1002180068086607DD005D08860087010108DE00C2
:10022800DF015E08CF005F08D0000A30D10000303F
:10023800D2008531A5258031200064084F07E000F1
:100248006508503DE10068352A3E86008701600850
:10025800C03F6108C13FC12968086707DD005D0824
:10026800860087010108DE00DF015E08CF005F0815
:10027800D0000A30D1000030D2008531A525803168
:10028800200068352A3E860087014F08C03F500885
:10029800C13FC12968086707DD005D08860087013E
:1002A8000108DE00DF01DE09DF09DE0A0319DF0AC3
:1002B80068086607E00060088600870101085E0795
:1002C800CF005F0803185F0AD0000A30D100003061
:1002D800D2008531A5258031200050086502031D14
:1002E80077294F0864020318A4296409DD00650909
:1002F800DE00DD0A0319DE0A68086607DF005F080A
:10030800860087010108E000E1016008CF0061086C
:10031800D0000A30D1000030D2008531A5258031C7
:1003280020005D084F07E2005E08503DE300683595
:100338002A3E860087016208C03F6308C13FC12981
:1003480068086707DD005D08860087010108DE0090
:10035800DF015E08CF005F08D0000A30D10000300E
:10036800D2008531A5258031200068352A3E8600D7
:1003780087014F08C03F5008C13F0130DD005D08CC
:10038800E80702306802031CD128863123260800BA
:100398002000D300D501D4012400161486319426F8
:1003A8008131A030240091008631942681312400C7
:1003B800161FF12901302000D1005108D4070B3055
:1003C80054020318080006302000D1003030890B91
:1003D800EB29D10BEB290000D02920005308240079
:1003E80091008631942681312400161B080096144A
:1003F800863194268131A1302400910086319426DB
:1004080081312400161B08002000D5015008FF3E4A
:10041800D100FF3003180030D2005208803A803CE7
:10042800031D182A510855020318372A2400961567
:10043800863194268131240011082000D100550806
:100448004F07D20052088600870151088100240016
:100458009612161686319426813101302000D1007B
:100468005108D5070A2A2400961586319426813129
:10047800240011082000D10050084F07D20052086C
:10048800FF3E860087015108810024009616161643
:100498008631942681312400161586319426080069
:1004A80020003008D500D6013108D700D8015708F8
:1004B800CF005808D0003C30D1000030D200853140
:1004C800A5258231200055084F07D9005608503D10
:1004D800DA005908DB005A08DC002F08D500D601DD
:1004E8005C08D0005B08CF001E30D1000030D2007D
:1004F8008531A5258231200055084F07D7005608B9
:10050800503DD8005708A0005808A1004808D50059
:10051800D6014708D700D8015708CF005808D0009F
:100528003C30D1000030D2008531A5258231200031
:1005380055084F07DB005608503DDC005C08D0002A
:100548005B08CF001E30D1000030D2008531A525D0
:10055800823120005008A3004F08A2004C08D500A3
:10056800D6014B08D700D8015708CF005808D0004B
:100578003C30D1000030D2008531A52582312000E1
:1005880055084F07DB005608503DDC005C08D000DA
:100598005B08CF001E30D1000030D2008531A52580
:1005A80020005008A5004F08A400080020008D1F57
:1005B800DF2A950108001508F6007608B200452BD9
:1005C800FB01FB0A08008C303202031CF52AB0300C
:1005D80032020318F52AB2010230F6007608FB0051
:1005E8000800FB01080027303202031C012B3630BB
:1005F80032020318012BB201152B10303202031CF2
:100608001A2B1F30320203181A2BB2010130F600E0
:10061800340A0F2BF635890B0E2B7608F70077086E
:10062800FA040130F6007608B4071B2BFB010830EA
:100638003402031C0800B4017A08F6007908363E33
:100648008600870176088100FA010130F6007608F5
:10065800F9070E307902031C0800FA01F90136087F
:100668000F390A3A031D432B0D30F6007608F000C7
:10067800363086310B262000430603193514FB015A
:1006880008007B08003A0319E42A013A0319E72A0B
:10069800033A0319F72A512B080008002000D90152
:1006A800023059020318BD2B5935263E86008701B2
:1006B800403FD300413FD40059352A3E8600870188
:1006C800403FD500413FD6005508013ED7000030D5
:1006D800563DD80054085802031D742B530857027E
:1006E8000318802B59352A3E86008701013081077F
:1006F80041310318810AB52B59352A3E86008701F6
:10070800403FD300413FD4005935263E860087013B
:10071800403FD500413FD6005508013ED700003084
:10072800563DD80054085802031D9C2B5308570205
:100738000318A92B59352A3E86008701013081020A
:1007480041310030813B7F31B52B5935263E86003B
:10075800870159352A3E84008501403F803F413F4B
:10076800813F0130D3005308D90702305902031CD6
:10077800582B86312326080044302000D60056081E
:10078800CF000B30D7005708D00020308131CC2162
:1007980083312000D8010230580203180B2C580866
:1007A800453E8600870165300102031CE32B643057
:1007B800D6005808453E860087015608810058082B
:1007C800493E8600870165300102031CF32B643023
:1007D800D6005808493E8600870156088100580807
:1007E8004D3E8600870165300102031C032C6430EE
:1007F800D60058084D3E8600870156088100013012
:10080800D6005608D80702305802031CD32B1830DC
:1008180047020318C7013C3048020318C8011830C2
:100828004B020318CB013C304C02031C0800CC01DE
:10083800080020004410B61B44142000C410B61A47
:10084800C41420004411361B441520003908DD006B
:100858005D08C7003A08DD005D08C8003D08DD00F6
:100868005D08CB003E08DD005D08CC00DE010230EB
:100878005E0203186E2C5E080B3E363E860087012A
:100888000108DD005E08453E860087015D0881009D
:100898005E08053E363E860087010108DD005E08D9
:1008A800493E860087015D0881005E08093E363EA4
:1008B800860087010108DD005E084D3E860087013D
:1008C8005D0881000130DD005D08DE0702305E0250
:1008D800031C3F2C8531062508002000D200D401D6
:1008E800D30124001614863194268431A0302400C4
:1008F80091008631942684312400161F962C0130ED
:100908002000D1005108D3070B3053020318080008
:1009180006302000D1003030890B902CD10B902C60
:100928000000752C2000520824009100863194267E
:1009380084312400161B08002000D40150085402FA
:100948000318BB2C54084F07D100510886008701B3
:100958000108240091008631942684312400161B56
:10096800080001302000D1005108D407A22C24002F
:1009780016158631942608002000441C0800C41C63
:10098800DD2C8631AC26843120004508DA00DB01F5
:100998005A08CF005B08D0000A30D1000030D200DE
:1009A8008531A525843120005008A7004F08A600EE
:1009B800E32C8631A02684312000A601A701441D1E
:1009C800FD2C8631A926843120004608DA00DB0197
:1009D8005A08CF005B08D0000A30D1000030D2009E
:1009E8008531A525843120005008A9004F08A800AA
:1009F800032D86319D2684312000A801A901833169
:100A0800522308000B302000D5005508DC00DA011D
:100A18004430D5005508D9008B135C0803193D2DC7
:100A280008305C0203181F2D5C08D500D601550854
:100A3800D7005608222D0830D7000030D8005708B4
:100A4800D5005508DB0059085A07D5005508CF00CE
:100A58005B08D6005608D0005A08203E843171241D
:100A6800853120005B08D5005508DA075B08DC02F1
:100A7800112D8B1708008531672585318331C023F7
:100A880085318631A62685318631A32685318B1797
:100A98000B1764002000351C582D351084311D2497
:100AA800853186314F2685312000911C5F2D9110AC
:100AB8008431C024853120002E1C4D2D2E1080310C
:100AC800312085314D2D8631632685318531F325D9
:100AD8008531863180268531863179268531863182
:100AE8007226853186316B26853186319926853186
:100AF800863133268531863159268531863142261D
:100B080085318631872608000130F0007008200002
:100B1800AF071E302F02031C0800AF010130F000A0
:100B28007008B0073C303002031C0800B0010130E7
:100B3800F0007008B10718303102031C0800B10139
:100B480008002000D301D4014F1CAE2D5108D30753
:100B58005208D43D0130D135D20D890BAF2D01306B
:100B6800D036CF0C890BB42D4F085004031DA82D87
:100B78005408D0005308CF00080020004F0803395C
:100B8800D1000530D135FF3E031DC62D51352C004F
:100B9800940020005008D2004F08D100D236D10C62
:100BA800D236D10C51082C009500080020004F08BF
:100BB8000339D1000530D135FF3E031DDF2D5135F6
:100BC8002C00910020005008D2004F08D100D236E6
:100BD800D10CD236D10C51082C009200080021000B
:100BE8000C110C168C160D160D178D178E108E11F4
:100BF8008E1223008C018D018E0122000C118E10A3
:100C08008E118E1224008D170D120D130800F3009B
:100C1800F401F501700875020318212E7508730791
:100C2800F1007108860087010108F2007208F407D4
:100C38000130F1007108F5070E2E74080800200035
:100C48002B08D0002A08CF008531DA25863120000C
:100C58002D08D0002C08CF008531C12508002000C0
:100C680018083F3980389800CF3098059815181122
:100C7800181099131110210011140800240094135E
:100C88001417951615121508F0390838950097119C
:100C980027309200080020003708CF004F08B10025
:100CA8003808CF004F08B0000800873020009C05A6
:100CB80003309C041C119A01F9309B00080078301D
:100CC80021009904FC3099051A180800682E2C0098
:100CD8009C171C171C129B019A0108002C009917DD
:100CE800191719129801970108002C009617161762
:100CF80016129501940108002C009317131713126C
:100D08009201910108002700951794179301960105
:100D18008B150800640080010131890B8F2E003487
:100D28002000911D942E9111080006302100950095
:100D380008002C00961308002C00931308002000CC
:100D48001C1508002000181408002C00961708002D
:080D58002C0093170800013480
:020000040001F9
:04000E00E4C9FFDF63
:00000001FF
