:0400000080311D2806
:100008007E14803120007F08F8002700961F1128F1
:10001800961383310823803118282000111C1828D2
:1000280011102E148531BF2578082000FF007E109E
:10003800090080311F288631EE268031EB00F90156
:10004800FA01FB01FC01FD0120308400003085002D
:100058002D308631CD267E1020008531702D200070
:10006800421808008631EB2680318631E826803137
:10007800823182228031200025082306031D46286C
:1000880024082206031D7028EA0102306A020318B8
:1000980070286A084B3E860087010108DB00DC01F6
:1000A8005B08CD005C08CE000A30CF000030D000DD
:1000B8008531DC25803120006A352A3E860087019B
:1000C8004D08C03F4E08C13F0130DB005B08EA071E
:1000D80002306A02031C4D2825082302031D7628D6
:1000E800240822020318882823082102031D7E28D9
:1000F80022082002031C882825082102031D8628BF
:1001080024082002031CA02823082502031D8E288A
:10011800220824020318B52823082102031D962863
:10012800220820020318A02825082102031D9E2862
:10013800240820020318B5282209DB002309DC0063
:10014800DB0A0319DC0A20085B07E40021085C3D90
:10015800E500E601E7014B30DB005B08E8004730CB
:10016800D3282409DB002509DC00DB0A0319DC0A93
:1001780020085B07E40021085C3DE500E601E70193
:10018800E71FCE28C030E407A830E53D0030E63D43
:100198000030E73D4730DB005B08E8004B30DB0010
:1001A8005B08E900EA0102306A020318F7296A08C5
:1001B8006907DB005B08860087016A086807DC00BE
:1001C8005C088400850100080102031C6A296A088A
:1001D8006807DB005B08860087010108DC00DD0199
:1001E800DC09DD09DC0A0319DD0A6A086907DE0093
:1001F8005E088600870101085C07CD005D080318CA
:100208005D0ACE000A30CF000030D0008531DC25F1
:10021800803120004D08DF004E08E000E101E201D6
:100228006708803AE3006208803A6302031D2629C2
:1002380061086602031D262960086502031D262938
:100248005F08640203184C296A086807DB005B082A
:10025800860087010108DC00DD015C08CD005D082F
:10026800CE000A30CF000030D0008531DC25803147
:10027800200064084D07DE0065084E3DDF006A3542
:100288002A3E860087015E08C03F5F08C13FEF290C
:100298006A086907DB005B08860087010108DC0043
:1002A800DD015C08CD005D08CE000A30CF000030CB
:1002B800D0008531DC25803120006A352A3E860051
:1002C80087014D08C03F4E08C13FEF296A086907FA
:1002D800DB005B08860087010108DC00DD01DC0922
:1002E800DD09DC0A0319DD0A6A086807DE005E0812
:1002F8008600870101085C07CD005D0803185D0AC8
:10030800CE000A30CF000030D0008531DC258031A6
:1003180020004D08DF004E08E000E101E201670817
:10032800803AE3006208803A6302031DA529610848
:100338006602031DA52960086502031DA5295F083B
:1003480064020318D2296409DB006509DC00DB0AB2
:100358000319DC0A6A086807DD005D088600870162
:100368000108DE00DF015E08CD005F08CE000A301C
:10037800CF000030D0008531DC25803120005B08BB
:100388004D07E0005C084E3DE1006A352A3E8600D4
:1003980087016008C03F6108C13FEF296A08690703
:1003A800DB005B08860087010108DC00DD015C08D2
:1003B800CD005D08CE000A30CF000030D000853176
:1003C800DC25803120006A352A3E860087014D08E9
:1003D800C03F4E08C13F0130DB005B08EA0702302E
:1003E8006A02031CDB2886315A2608002000D10047
:1003F800D301D201240016148631D3268131A030CE
:10040800240091008631D32681312400161F1F2A2B
:1004180001302000CF004F08D2070B3052020318DA
:10042800080006302000CF003030890B192ACF0B86
:10043800192A0000FE292000510824009100863165
:10044800D32681312400161B080096148631D32642
:100458008131A130240091008631D32681312400D6
:10046800161B08002000D3014E08FF3ECF00FF30C6
:1004780003180030D0005008803A803C031D462AFB
:100488004F0853020318652A240096158631D3268F
:100498008131240011082000CF0053084D07D000F7
:1004A8005008860087014F0881002400961216160E
:1004B8008631D326813101302000CF004F08D30781
:1004C800382A240096158631D32681312400110854
:1004D8002000CF004E084D07D0005008FF3E860090
:1004E80087014F0881002400961616168631D326F8
:1004F8008131240016158631D326080020003008E3
:10050800D300D4013108D500D6015508CD005608CE
:10051800CE003C30CF000030D0008531DC25823160
:10052800200053084D07D70054084E3DD8005708FF
:10053800D9005808DA002F08D300D4015A08CE0091
:100548005908CD001E30CF000030D0008531DC25A1
:100558008231200053084D07D50054084E3DD6007F
:100568005508A0005608A1004608D300D401450844
:10057800D500D6015508CD005608CE003C30CF0036
:100588000030D0008531DC258231200053084D072A
:10059800D90054084E3DDA005A08CE005908CD005B
:1005A8001E30CF000030D0008531DC25823120009C
:1005B8004E08A3004D08A2004A08D300D4014908F8
:1005C800D500D6015508CD005608CE003C30CF00E6
:1005D8000030D0008531DC258231200053084D07DA
:1005E800D90054084E3DDA005A08CE005908CD000B
:1005F8001E30CF000030D0008531DC2520004E08A9
:10060800A5004D08A400080020008D1F0E2B0B111B
:10061800950108001508F6007608F90095010B11F8
:10062800762BFD01FD0A08008C307902031C262B6D
:10063800B03079020318262BF9010230F60076084B
:10064800FD000800FD01080027307902031C322B49
:10065800363079020318322BF901462B1030790213
:10066800031C4B2B1F30790203184B2BF901013067
:10067800F6007B0A402BF635890B3F2B7608F700EE
:100688007708B2040130F6007608FB074C2BFD0111
:1006980008307B02031C0800FB013208F6007C08C6
:1006A800343E8600870176088100B2010130F600E9
:1006B8007608FC070E307C02031C0800B201FC011E
:1006C80034080F390A3A031D742B0D30F6007608EA
:1006D800F0003430863142262000410603193314D5
:1006E800FD0108007D08003A0319152B013A03198A
:1006F800182B033A0319282B822B08000800200026
:10070800D701023057020318EE2B5735263E8600D4
:100718008701403FD100413FD20057352A3E86002D
:100728008701403FD300413FD4005308013ED50024
:100738000030543DD60052085602031DA52B51081F
:1007480055020318B12B57352A3E86008701013020
:10075800810741310318810AE62B57352A3E860066
:100768008701403FD100413FD2005735263E8600E1
:100778008701403FD300413FD4005308013ED500D4
:100788000030543DD60052085602031DCD2B5108A7
:1007980055020318DA2B57352A3E860087010130A7
:1007A800810241310030813B7F31E62B5735263EAF
:1007B8008600870157352A3E84008501403F803FE7
:1007C800413F813F0130D1005108D707023057021D
:1007D800031C892B86315A26080042302000D40099
:1007E8005408CD000B30D5005508CE00203081319B
:1007F800FA2183312000D6010230560203183C2C1E
:100808005608433E8600870165300102031C142CFC
:100818006430D4005608433E86008701540881009E
:100828005608473E8600870165300102031C242CC8
:100838006430D4005608473E86008701540881007A
:1008480056084B3E8600870165300102031C342C94
:100858006430D40056084B3E860087015408810056
:100868000130D4005408D60702305602031C042C69
:10087800183045020318C5013C3046020318C6016A
:10088800183049020318C9013C304A02031C080009
:10089800CA01080020004210B41B42142000C210F4
:1008A800B41AC21420004211341B42152000370824
:1008B800DB005B08C5003808DB005B08C6003B08A6
:1008C800DB005B08C9003C08DB005B08CA00DC01F0
:1008D80002305C0203189F2C5C080B3E343E8600F5
:1008E80087010108DB005C08433E860087015B083E
:1008F80081005C08053E343E860087010108DB0064
:100908005C08473E860087015B0881005C08093E59
:10091800343E860087010108DB005C084B3E8600F8
:1009280087015B0881000130DB005B08DC070230CF
:100938005C02031C702C8531372508002000D0008C
:10094800D201D101240016148631D3268431A03077
:10095800240091008631D32684312400161FC72C29
:1009680001302000CF004F08D1070B305102031887
:10097800080006302000CF003030890BC12CCF0B87
:10098800C12C0000A62C20005008240091008631BC
:10099800D32684312400161B08002000D2014E08FB
:1009A80052020318EC2C52084D07CF004F0886005E
:1009B80087010108240091008631D3268431240060
:1009C800161B080001302000CF004F08D207D32C97
:1009D800240016158631D32608002000421C080082
:1009E800C21C0E2D8631EB26843120004308D80026
:1009F800D9015808CD005908CE000A30CF00003080
:100A0800D0008531DC25843120004E08A7004D0830
:100A1800A600142D8631DF2684312000A601A70107
:100A2800421D2E2D8631E826843120004408D80046
:100A3800D9015808CD005908CE000A30CF0000303F
:100A4800D0008531DC25843120004E08A9004D08EE
:100A5800A800342D8631DC2684312000A801A901A4
:100A68008331832308000B302000D3005308DA00B9
:100A7800D8014230D3005308D7008B135A08031902
:100A88006E2D08305A020318502D5A08D300D4018D
:100A98005308D5005408532D0830D5000030D6002F
:100AA8005508D3005308D90057085807D3005308EE
:100AB800CD005908D4005408CE005808203E84318F
:100AC800A224853120005908D3005308D8075908B3
:100AD800DA02422D8B17080085319E258531833136
:100AE800F12385318631E52685318631E226853147
:100AF8008B170B1764000B1D852D0B118631A22651
:100B080085312000331C8F2D331084314E248531DC
:100B18008631862685312000911C962D91108431CE
:100B2800F124853120002E1C7E2D2E10803133209B
:100B380085317E2D86319A26853186312A26853162
:100B48008631BF2685318631B82685318631B12672
:100B580085318631AA2685318631D8268531863178
:100B68006A26853186319026853186317926853108
:100B78008631C62608000130F00070082000AF0753
:100B88001E302F02031C0800AF010130F00070086E
:100B9800B0073C303002031C0800B0010130F000FF
:100BA8007008B10718303102031C0800B1010800B1
:100BB8002000D101D2014D1CE52D4F08D107500866
:100BC800D23D0130CF35D00D890BE62D0130CE3620
:100BD800CD0C890BEB2D4D084E04031DDF2D52085B
:100BE800CE005108CD00080020004D080339CF0081
:100BF8000530CF35FF3E031DFD2D4F352C009400E9
:100C080020004E08D0004D08CF00D036CF0CD0368B
:100C1800CF0C4F082C009500080020004D08033920
:100C2800CF000530CF35FF3E031D162E4F352C0063
:100C3800910020004E08D0004D08CF00D036CF0CD0
:100C4800D036CF0C4F082C009200080021000C1160
:100C58000C168C160D160D178D178E108E118E1200
:100C680023008C018D018E0122000C118E108E1133
:100C78008E1224008D170D120D130800F300F401D5
:100C8800F501700875020318582E75087307F100EE
:100C98007108860087010108F2007208F407013024
:100CA800F1007108F507452E7408080020002B088C
:100CB800CE002A08CD0086311126863120002D0865
:100CC800CE002C08CD008531F82508002000180832
:100CD8003F3980389800CF309805981518111810AA
:100CE80099131110210011140800240094131417EB
:100CF800951615121508F039083895009711273000
:100D08009200080020003508CD004D08B1003608D3
:100D1800CD004D08B0000800873020009C05033046
:100D28009C041C119A01F9309B00080078302100BE
:100D38009904FC3099051A1808009F2EFD01F90145
:100D4800FA01FB012000B201FC0108002C009C17ED
:100D58001C171C129B019A0108002C0099171917DF
:100D680019129801970108002C00961716171612E9
:100D78009501940108002C00931713171312920180
:100D880091010800270095179417930196018B1578
:100D98000800640080010131890BCE2E0034200048
:100DA800911DD32E911108000630210095000800EE
:100DB8002C00961308002C009313080020001C1523
:100DC80008002000181408002C00961708002C00B2
:060DD8009317080001342E
:020000040001F9
:04000E00DCC9FFFF4B
:00000001FF
