:04000000803117280C
:100008007E1480312700961F0E28961384312024F1
:10001800803115282000111C152811102E14843148
:10002800F0247E100900803119282030F001F101F8
:10003800F201F301F401F5018400003085002C3051
:10004800853102257E10200080314D280B30D700E5
:100058004130D501D2008B13570803194B280830BB
:1000680057020318392857083A280830D300D40112
:10007800D60052085507CC005608CD005508203E3A
:100088001322803120005608D507D70230288B1755
:100098000800F7228031D621803161238031632323
:1000A80080318B170B1764000B1D5D280B11F02294
:1000B80080312000321C65283210BB228031652334
:1000C8008031911C6A2891107120803120002E1CEB
:1000D80057282E10E02080315728411C0800C11CE9
:1000E8008228D021803120004208AF238031BB21F3
:1000F80080314D08A7004C08A60087286A23803164
:100108002000A601A701411D9628D3218031200097
:100118004308AF238031BB2180314D08A9004C082A
:10012800A8009A286D232000A801A90184319B2CDE
:1001380020003108CC000830CD01CE000730CF00B8
:10014800BB2180314C08D2004D08D3003008CC00C8
:100158001E30CD01CE00CF01BB2180314C085207A3
:10016800A0004D08533DA1002F08A0070318A10ABD
:100178004408F2238031BB2180314D08D5004C085A
:10018800D4004508B5238031BB2180314D08A30038
:100198004C08A2004808F2238031BB2180314D0869
:1001A800D5004C08D4004908B5238031BB214D083F
:1001B800A5004C08A400080041180800D02180318F
:1001C800D32180319C20803125082306031DEE2889
:1001D80024082206031DFE28E30163084A3E9923EA
:1001E8008031BB218031DD2380310230E30A630294
:1001F800031CF12825082302031D042924082202D0
:100208002308031817292102031D0C29220820029C
:10021800031C162925082102031D1429240820027D
:10022800031C2E2923082502031D1C292208240249
:100238000318372923082102031D24292208200234
:1002480003182E2925082102031D2C292408200221
:10025800031837292230D42380314A30DF01E001E6
:10026800E100463048292430D4238031DF01E00101
:10027800E01F4529C030DD07A830DE3D0030DF3DF6
:10028800E03D4630E1004A30E200E30163086207DE
:10029800D6008600870163086107D70084008501BE
:1002A800000801026308031C8A296207D600860039
:1002B80063086107D7008400CA238031BB218031DD
:1002C800A2238031031D72295A085F02031D722977
:1002D80059085E02031D722958085D026308031855
:1002E80081296107D60099238031BB2180315D08BF
:1002F8004C07D7005E084D3DB3296207D600992305
:100308008031BB218031DD238031B5296107D600DA
:100318008600870163086207D70084008501CA2325
:100328008031BB218031A2238031031DA5295A08C1
:100338005F02031DA52959085E02031DA529580857
:100348005D026308031881296107D600992380316B
:10035800BB2180315D084C02D7005E084D3BC023AD
:1003680080310230E30A6302031C4A29702BD00152
:10037800D1014C1CC3294E08D0074F08D13DCE35BA
:10038800CF0DCD36CC0C4C084D04031DBD295108AA
:10039800CD005008CC0008002C00931708002C0052
:1003A8009617080041302000CC000B30CD002030DB
:1003B800532280312000D3015308423EE623803186
:1003C800031CE929423EF8238031463EE62380316A
:1003D800031CF129463EF82380314A3E86006530E9
:1003E80087010102031CFD2953084A3E8600643038
:1003F80081000230D30A5302031CE029183044025A
:100408000318C4013C3045020318C50118304802DE
:100418000318C8013C3049020318C9010800CF007D
:10042800D00124001614B6228031A0302400910097
:10043800B62280312400161F312A20000B30D00A42
:1004480050020318080006302000CE003030890B17
:100458002B2ACE0B2B2A0000152A20004F08240037
:100468009100B62280312400161B08002000D1011B
:100478004D0851020318502A51084C07CE00860037
:100488008701010824009100B62280312400161B40
:1004980008002000D10A3C2A24001615B62AD000EC
:1004A800D10124001614B6228031A0302400910016
:1004B800B62280312400161F712A20000B30D10A81
:1004C80051020318080006302000CE003030890B96
:1004D8006B2ACE0B6B2A0000552A200050082400F6
:1004E8009100B62280312400161B08009614B6220B
:1004F8008031A13024009100B62280312400161BDF
:1005080008002000D2014D08FF3ECE00FF3003183E
:100518000030CF00803A803C031D942A4E085202D6
:100528000318A52A24009615B622803152084C07D4
:10053800CE00EC23803196121616B6228031D20AEC
:10054800872A24009615B62280314D084C07CE0024
:10055800FF3EEC23803196161616B6228031240011
:100568001615B62A2000911DB62A911108004110CF
:10057800B31B41142000C110B31AC114200041114B
:10058800331B411520003608C4003708C5003A0857
:10059800C8003B08C900D8015808423E86008701B8
:1005A80058083E3E84008501000881005808463EF0
:1005B80086005808383E84000008810058084A3EE2
:1005C800860058083C3E8400000881000230D80AA2
:1005D8005802031CD02A2A28F501F001F101F20182
:1005E800F401F30108000C238031142380312B23FC
:1005F800803132238031382380313E2380314423B7
:1006080080314823803157238031FD238031922B5C
:10061800783021009904FC3099051A180800112B2C
:100628000C110C168C160D160D178D178E108E11B9
:100638008E1223008C018D018E0122000C118E1068
:100648008E118E1224008D170D120D1308002C0028
:100658009317131713129201910108009617161792
:100668001612950194010800991719171912980183
:10067800970108009C171C171C129B019A0108007F
:100688000630210095000800200018083F398038FE
:100698009800CF3098059815181118109913111053
:1006A800210011140800873020009C0503309C04A9
:1006B8001C119A01F9309B000800181408001C1539
:1006C80008003408B1003508B00008002C00931366
:1006D80008002C00961308002B08CD002A08CC002F
:1006E8007C23803120002D08CD002C08CC000A2C5A
:1006F8004C080339CE00CE0CCE0C4E0CC0392C0061
:10070800910020004D08CF004C08CE00CF36CE0C0B
:10071800CF36CE0C4E082C00920008002700951703
:100728009417930196018B1508008600870101082C
:10073800CC000A30CD01CE00CF0108004C08D8000B
:100748004D08D900DA01DB016008803ADC005B085B
:10075800803A5C020800CC000A30CD01CE00CF01FF
:100768000800D4070318D50A5508CD005408CC0052
:100778001E30CE00CF010800D80063352A3E86001F
:1007880087015708C03F5808C13F08000008010208
:10079800CC00CD01031CCD030A30CE00CF010800E8
:1007A80086008701403F2002DD00413F213BDE00FB
:1007B800080063352A3E860087014C08C03F4D0873
:1007C800C13F080086006530870101025308080010
:1007D800860087012400110881000800CC003C3005
:1007E800CD01CE00CF010800860064308100530897
:1007F8000800240094131417951615121508F039DB
:100808000838950097112730920008004C080339E2
:10081800CE00CE0CCE0C4E0CC0392C00940020001B
:100828004D08CF004C08CE00CF36CE0CCF36CE0CBC
:100838004E082C009500080020008D1F262C0B1157
:10084800950108001508F00095010B117D2CF501A4
:10085800F50A08008C307002031C3A2CB030700284
:1008680003183A2C0230F001F5000800F5010800E1
:1008780027307002031C472C363070020318472CAF
:10088800F001F20A5B2C10307002031C5A2C1F3046
:10089800700203185A2C0130F001FB00720A552C23
:1008A800FB35890B542C7B08F404452CF5010830E2
:1008B8007202031C0800F2017308333E86008701A8
:1008C800740881000E30F401F30A7302031C080057
:1008D800F401F30133080F390A3A031D3A2C0D309D
:1008E800F6003330892484314006031D3A2C321433
:1008F8003A2C7508003A03192B2C013A03192E2CAF
:10090800033A03193C2C882C0800F800F901FA0175
:1009180076087A020318992C7A087807F700860077
:1009280087010108F907FA0A8C2C79080800D60112
:100938005635263EE22484312A3ED02484310318D9
:10094800AC2CEA248431810741310318810AC92C6F
:1009580056352A3EE2248431263ED02484310318B9
:10096800BD2CEA248431810200304131813B7F3142
:10097800C92C5635263E8600870156352A3E840006
:100988008501403F803F413F813F0230D60A5602F1
:10099800031C9C2C8331702B8600403FD200413FC2
:1009A800D3005208013ED4000030533DD500510811
:1009B8005502031D080050085402080086008701EC
:1009C800403FD000413FD1005635080056352A3EF9
:1009D8008600013087010800AF0A1E302F02031C71
:1009E8000800AF01B00A3C303002031C0800B00117
:1009F800B10A183031020318B101080064008001FF
:080A08000131890B032D0034BC
:020000040001F9
:04000E00E4C9FFDF63
:00000001FF
